:020000040800F2
:1000000000040020B5260008952200089722000869
:10001000992200089B2200089D2200080000000091
:100020000000000000000000000000009F22000807
:10003000A122000800000000A3220008A522000859
:1000400015270008192700081D2700082127000888
:100050002527000829270008152300082123000868
:1000600035270008392700083D27000841270008E8
:1000700045270008492700084D2700085127000898
:1000800055270008592700085D2700086127000848
:1000900065270008692700086D27000871270008F8
:1000A00075270008792700087D27000881270008A8
:1000B000A7220008ED220008A922000891270008C5
:1000C00095270008992700089D270008A127000808
:1000D000A5270008A9270008AD270008B1270008B8
:1000E000B5270008B9270008BD270008C127000868
:1000F000C5270008C9270008CD270008D127000818
:10010000D5270008D9270008DD270008E1270008C7
:10011000E5270008E9270008ED270008F127000877
:10012000F5270008F9270008FD2700080128000826
:100130002DE9F04106000F0014001D00DDF81880C5
:100140000121404601F00AFE054806800448C770B8
:10015000034884700249280000F05AFFBDE8F0818E
:10016000080500202DE9F84306000F0014001D00CB
:10017000DDF82080012155F0010001F0EFFD5A4823
:100180004FF47A7101FB06F190FBF1F0401E8146BD
:100190005348A0F8049052480021018050480021A3
:1001A000C1804F48002141804D49200000F03AFDB8
:1001B0004C48602101804B480121418009FB07F038
:1001C000642190FBF1F0401C4649C880454800215D
:1001D00001814046012806D0022809D003280CD00E
:1001E00004280FD012E03F49200000F036FD0DE05A
:1001F0003C49200000F070FD08E03A49200000F082
:10020000B1FD03E03749200000F0F1FD0121280095
:1002100001F0B6FD0848844202D00848844204D167
:100220000121200000F02AFE03E00121200000F05F
:1002300017FEBDE8F18300BF002C014000340140EF
:100240002DE9F84306000F0014001D00DDF8209092
:10025000DDF824808021300000F048FE20213000AD
:1002600000F032FE1E4884801D48002101801C4899
:100270000021C1801A48002141801949380000F04E
:10028000D1FC1848602101801648012141801548A1
:10029000C5801448002101811249380000F0DDFCBE
:1002A0001049380000F018FD0E49380000F05AFDE2
:1002B0000C49380000F09BFD0121484601F060FD2B
:1002C0000121380000F0CCFD0521380000F005FECA
:1002D000414689B2380000F0EDFDBDE8F183000031
:1002E000380400202804002000A24A0410B50400AD
:1002F00007480470064800214170054800218170BC
:1003000003480121C170024802F0A2F810BD00BFED
:100310000C050020F8B506000F0014001D00210098
:10032000C9B23800C0B200F029FF0748066006488D
:10033000002101710448457103480121817102487F
:1003400002F01AF8F1BD00BF000500202DE9F843C6
:100350008046894616001F00DDE908450A48C0E9C5
:1003600000890A48C0E900670948C0E900450F2232
:100370002021D22001F0E1FA80222321D22001F0B5
:10038000DCFABDE8F18300BF78040020800400207F
:10039000880400202DE9F04F87B004002921D220E5
:1003A00001F004FB0500EDB22821D22001F0FEFA95
:1003B00050EA0520624908802B21D22001F0F6FA8C
:1003C0000500EDB22A21D22001F0F0FA50EA052012
:1003D0005C4908802D21D22001F0E8FA0500EDB239
:1003E0002C21D22001F0E2FA50EA0520564908807B
:1003F0005348B0F9000002F0E7F802000B00534840
:10040000534901F04BFB534AC2E900014D48B0F992
:10041000000002F0D9F802000B004C484C4901F0F2
:100420003DFB4D4AC2E900014748B0F9000002F027
:10043000CBF802000B004548454901F02FFB474A25
:10044000C2E900014348D0E900235FF0333044495A
:1004500001F024FB06000F004248D0E900235FF0C2
:100460006630414901F01AFB32003B0001F09EFE6C
:10047000384AC2E900013B4A364BD3E90001C2E9E0
:1004800000013548D0E900235FF03330344901F0F2
:1004900005FB06000F003548D0E900235FF0663009
:1004A000314901F0FBFA32003B0001F07FFE2A4A9D
:1004B000C2E900012D4A284BD3E90001C2E900013D
:1004C0002648D0E900235FF03330254901F0E6FAF1
:1004D00006000F002648D0E900235FF0663022496D
:1004E00001F0DCFA32003B0001F060FE1B4AC2E979
:1004F00000011F4A194BD3E90001C2E90001154868
:10050000D0E90023904699461348D0E9002392464B
:100510009B46104AD2E90001CDE900010E4AD2E91A
:100520000001CDE902010D4AD2E90001CDE9040143
:10053000200000A9182201F0D8FF07B0BDE8F08F15
:10054000140500201605002018050020EC51B81EE7
:1005500085EB813F4804002050040020580400200F
:100560003333D33F600400206666E63F6804002012
:100570007004002070B504000D00160008222D2123
:10058000A62001F0DAF90B223121A62001F0D5F9DD
:100590002200D2B21E21A62001F0CFF92A00D2B249
:1005A0001F21A62001F0C9F93200D2B22021A620D5
:1005B00001F0C3F970BD000030480078002820D158
:1005C0003448006897281CDA2D480068202818DB7A
:1005D00030480068401C2F4908602A482D490968A6
:1005E000018029482B490968018028482949096860
:1005F00001802748274909680180204801210170AE
:100600003AE01F480068C92819DB22480068D3284F
:1006100015DA20480068401C1E49086019481D4929
:100620000968018018481B49096801801748194961
:100630000968018016481749096801801CE01048C4
:100640000068822818DA13480068962814DB1148DD
:100650000068401E0F4908600A480E490968018079
:1006600009480C490968018008480A49096801805D
:100670000748084909680180704700BF1A05002033
:100680001804002034040040380400403C040040BA
:10069000400400401C0400202DE9F04F83B00020EE
:1006A000002180468946914AD2E9000191F000413B
:1006B0000020002104000D008D4AD2E9000191F0D4
:1006C00000418C4AD2E9000142464B4601F0E6F96E
:1006D00002000B00884ED6E9000101F067FD864A52
:1006E000C2E90001834AD2E9000122002B0001F097
:1006F000D5F902000B00814ED6E9000101F056FD4C
:100700007E4AC2E900017E4AD2E900017A4ED6E96A
:10071000002301F041FF06D2774A794BD3E900016B
:10072000C2E900010EE0744AD2E90001754ED6E933
:10073000002301F031FF05D26F4A724BD3E900016B
:10074000C2E900016E4AD2E900016C4ED6E90023ED
:1007500001F022FF06D2694A694BD3E90001C2E9E0
:1007600000010EE0654AD2E90001664ED6E9002399
:1007700001F012FF05D2614A624BD3E90001C2E9E0
:1007800000015A4AD2E900015F4ED6E9002301F088
:100790001BFBCDE90001564AD2E900015B4ED6E9C8
:1007A000002301F011FB82468B46594AD2E9000131
:1007B00042464B4601F072F902000B004E4ED6E95C
:1007C000000101F0F3FC06000F005248D0E90023BD
:1007D000DDE9000101F062F902000B003000390090
:1007E00001F0F2FA4C4AC2E90001494AD2E900019B
:1007F00022002B0001F052F902000B003F4ED6E917
:10080000000101F0D3FC06000F00424AD2E90001CA
:1008100052465B4601F042F902000B0030003900FD
:1008200001F0D2FA3D4AC2E90001354AD2E900019D
:100830003B4ED6E9002301F0AFFE06D22E4A304BE4
:10084000D3E90001C2E900010EE0354AD2E9000116
:100850002C4ED6E9002301F09FFE05D2264A294BF3
:10086000D3E90001C2E90001254AD2E900012D4E79
:10087000D6E9002301F090FE06D21F4A204BD3E9AF
:100880000001C2E900010EE0264AD2E900011D4E36
:10089000D6E9002301F080FE05D2184A194BD3E9AE
:1008A0000001C2E900011C48D0E90023002000211A
:1008B00001F0F4F81A4AC2E900011848D0E900230F
:1008C0000020002101F0EAF8164AC2E900010E4AB0
:1008D000064BD3E90001C2E900010C4A044BD3E9FD
:1008E0000001C2E90001BDE8F78F00BF90040020BD
:1008F00098040020F0040020B0040020B804002078
:1009000010040020C0040020C8040020D0040020EF
:10091000E8040020F8040020D8040020E0040020AF
:10092000A0040020A80400202DE9F84F82468B4641
:1009300090469946DDE90A671048006801F044FED8
:1009400000220F4B00F080FD04000D000D48C0E9AF
:1009500000AB22002B004046494601F09FF80A4AAE
:10096000C2E900013000390022002B0000F06CFDCC
:10097000064AC2E90001BDE8F18F00BF2004002053
:1009800000408F40E8040020F0040020F80400201C
:1009900010B5184AD2E90001174CD4E9002301F040
:1009A00013FA01F0CDFD154908801248D0E9002363
:1009B000114CD4E9000101F0F9FB01F0C1FD10492F
:1009C00008800C48D0E900230B4CD4E9000101F069
:1009D000EDFB01F0B5FD0B490880064AD2E90001A4
:1009E000054CD4E9002301F0EFF901F0A9FD064917
:1009F000088010BDA0040020A8040020340400409A
:100A0000380400403C0400404004004000B589B078
:100A100001F09AFA00F00AFC00F080FF6F4870497C
:100A2000CDE900016F4A704B70487149FFF78EFCA9
:100A3000002200210020FFF79DFD01214FF480706E
:100A400001F07AF9012140F2E11001F087F9042068
:100A50000090684B032218214020FFF769FB10200B
:100A60000090654B032218214020FFF761FB042012
:100A70000090604B032218214FF40040FFF758FB11
:100A8000042000905B4B032218214FF48070FFF785
:100A90004FFB04200090574B032218218020FFF7C2
:100AA00047FB08200090554B032218210120FFF737
:100AB0003FFB08200090514B032218210220FFF732
:100AC00037FB082000904D4B032218214020FFF7F0
:100AD0002FFB08200090494B032218218020FFF7AC
:100AE00027FB08200090454B032218214FF480700B
:100AF000FFF71EFB08200090404B032218214FF403
:100B00000070FFF715FB802000903D4B0322102161
:100B10004FF40070FFF70CFB04200090354B0322CC
:100B200048210420FFF704FB012000900423354AEC
:100B300014216420FFF716FB302001900220009062
:100B40003148036840F2E73230492E48FFF778FB1E
:100B5000302001900120009041F2883342F20F7260
:100B60005FF080412748FFF76BFB04200090214B8A
:100B7000032248210220FFF7DBFA082000901D4BDA
:100B8000032248210120FFF7D3FA1023012200217C
:100B90000220FFF7BFFB0720FFF7A8FB012201217E
:100BA0001A4800F07CF91D20FFF7A0FB18481949EE
:100BB000CDE900010022002317481849FFF7B4FED1
:100BC000174800780028FBD002A8FFF7E3FBFFF7E7
:100BD00063FDFFF7DDFEFFF7EFFCF1E72A6F473813
:100BE0002D78D7BF59FAD005F52DC3BF7C2766BD38
:100BF00018CACDBF0008014000100140000C0140A0
:100C0000001C0140000800401C04002000040040BB
:100C1000FCA9F1D24D62503FF6285C8FC2F5D83F57
:100C20001B05002010B4028812F08F020280028897
:100C3000CB884C8823431A4302808A8882850A889D
:100C40000285854A904202D0844A904201D10A7AB4
:100C500002860122828210BC704770B400252C00ED
:100C600000252A0000252B00058C4FF6FE76354026
:100C70000584058C2A0085882B00058B2C004FF6F7
:100C80008C752C400D882C434FF6FD752A400D893C
:100C90002A434D882A43704DA84202D06F4DA84286
:100CA00013D14FF6F7752A404D892A434FF6FB754D
:100CB0002A408D882A4347F6FF652B4047F6FF55AB
:100CC0002B408D892B43CD892B4383800483CD8892
:100CD0008586028470BC704770B400252C00002506
:100CE0002A0000252B00058C4FF6EF763540058451
:100CF000058C2A0085882B00058B2C0048F6FF45C3
:100D00002C400D8854EA05244FF6DF752A400D89E2
:100D100052EA05124D8852EA05124F4DA84202D000
:100D20004E4DA84217D14FF67F752A404D8952EAA1
:100D300005124FF6BF752A408D8852EA051247F614
:100D4000FF352B4047F2FF752B408D8953EA850311
:100D5000CD8953EA850383800483CD880587028487
:100D600070BC704770B400252C0000252A000025B7
:100D70002B00058C4FF6FF6635400584058C2A0054
:100D800085882B00858B2C004FF68C752C400D88A8
:100D90002C434FF6FF552A400D8952EA05224D8813
:100DA00052EA05222C4DA84202D02C4DA84217D160
:100DB0004FF2FF752A404D8952EA05224FF6FF3562
:100DC0002A408D8852EA052246F6FF752B4045F6EB
:100DD000FF752B408D8953EA0513CD8953EA05131E
:100DE00083808483CD888587028470BC704770B40B
:100DF00000252C0000252A0000252B00058C4EF62E
:100E0000FF7635400584058C2A0085882B00858B6C
:100E10002C0048F6FF452C400D8854EA05244DF679
:100E2000FF752A400D8952EA05324D8852EA053293
:100E3000094DA84202D0094DA84204D19B049B0C45
:100E40008D8953EA851383808483CD88A0F8405030
:100E5000028470BC70470000002C01400034014047
:100E6000C9B2002904D0028852F00102028004E0D5
:100E7000028840F2FE331A4002807047C9B200294E
:100E800006D0B0F8442052F40042A0F8442005E017
:100E9000B0F844205204520CA0F844207047D2B25B
:100EA000002A03D083890B43838102E083898B432B
:100EB0008381704700231A0003891A004FF68F734D
:100EC0001A400A430281704782884FF68F731A4096
:100ED000828082880A438280704702894FF6F873C5
:100EE0001A40028102890A430281704702894FF643
:100EF0007F731A40028102890A4302817047808C05
:100F0000704730B402000025280000252B00002582
:100F10002C00158A0D402B0095890D402C009BB2AA
:100F2000002B05D0A4B2002C02D00125280001E03E
:100F300000252800C0B230BC704789B2CA43028283
:100F40007047000010B504002A48844208D10121EE
:100F5000042000F027FF0021042000F023FF48E0D8
:100F60002548844208D10121082000F01BFF002100
:100F7000082000F017FF3CE02048844208D10121FE
:100F8000102000F00FFF0021102000F00BFF30E0D8
:100F90001B48844208D10121202000F003FF0021DA
:100FA000202000F0FFFE24E01648844208D10121F1
:100FB000402000F0F7FE0021402000F0F3FE18E092
:100FC0001148844208D10121802000F0EBFE00216D
:100FD000802000F0E7FE0CE00C48844209D101219A
:100FE0004FF4807000F0DEFE00214FF4807000F0BE
:100FF000D9FE10BD00080140000C01400010014066
:101000000014014000180140001C01400020014074
:10101000F0B55FF0000C62465FF0000C63465FF0D5
:10102000000C64465FF0000C65465FF0000C6646FD
:101030005FF0000C674691F803C01CF00F0C62468D
:1010400091F803C05FEACC6C03D591F802C05CEA6A
:101050000202B1F800C05FEA0C6C3AD0D0F800C0D0
:1010600066465FF0000C6446082C31D25FF0010C3C
:101070001CFA04FC6546B1F800C015EA0C0C634686
:10108000AB4223D15FEA840C65465FF00F0C1CFA7B
:1010900005FC6746BE4312FA05FC5CEA060691F8B9
:1010A00003C0BCF1280F06D15FF0010C1CFA04FC50
:1010B000C0F814C00AE091F803C0BCF1480F05D194
:1010C0005FF0010C1CFA04FCC0F810C0641CCBE7F4
:1010D0000660B1F800C04FF4807EF4453FD3D0F8ED
:1010E00004C066465FF0000C6446082C36D25FF000
:1010F000010C14F1080E1CFA0EFC6546B1F800C094
:1011000015EA0C0C6346AB4226D15FEA840C6546B7
:101110005FF00F0C1CFA05FC6746BE4312FA05FC93
:101120005CEA060691F803C0BCF1280F07D15FF016
:10113000010C14F1080E1CFA0EFCC0F814C091F852
:1011400003C0BCF1480F07D15FF0010C14F1080E89
:101150001CFA0EFCC0F810C0641CC6E74660F0BD67
:1011600002000023180093680B4202D001231800EC
:1011700001E000231800C0B27047000030B4002323
:101180001A000F2311F00304E4B2A400A3401A00D4
:10119000C9B28B100E4C54F823309343C9B28C1053
:1011A0000B4D45F82430C9B28B10094C54F823304C
:1011B000C0B211F00304E4B2A40010FA04F4234313
:1011C000C9B28C10024D45F8243030BC704700BFC6
:1011D0000800014081B008208DF800009DF8000053
:1011E000411E8DF80010C0B2002801D000BFF5E705
:1011F00001B0704781B0FF2000900098411E00911F
:10120000002801D000BFF8E701B0704700000000DF
:1012100081B0054800900098411E0091002801D03F
:1012200000BFF8E701B07047FFFF040080B500F091
:1012300099F800F0D3F85FF0D840AE210170FFF7C5
:10124000C9FF5FF0D840E2210170FFF7D3FF5FF0E4
:10125000D840A2210170FFF7BDFF5FF0D840A02168
:101260000170FFF7B7FF5FF0D840C8210170FFF7AA
:10127000B1FF5FF0D84040210170FFF7ABFF5FF096
:10128000D8402C210170FFF7C3FF5FF0D8402E211A
:101290000170FFF7BDFF5FF0D8402F210170FFF70D
:1012A000B7FF5FF0D84025210170FFF793FF5FF093
:1012B000D84081210170FFF78DFF5FF0D8402021D9
:1012C0000170FFF787FF00F01BF8FFF783FF5FF067
:1012D000D840B0210170FFF77DFF5FF0D8401021AA
:1012E0000170FFF777FF5FF0D84000210170FFF732
:1012F00071FF5FF0D840AF210170FFF76BFF01BDB8
:1013000070B580200500002006005FF0D840402125
:101310000170FFF75FFF00200400E4B2082C1ED22A
:1013200054F0B0005FF0D8410870FFF753FF5FF052
:10133000D84010210170FFF74DFF5FF0D840002129
:101340000170FFF747FF2800451EC0B2002804D0F7
:1013500003480670FFF73EFFF5E7641CDDE770BD4C
:101360000100006C80B51948FFF7ECFD4CF233002A
:10137000ADF8000003208DF8020018208DF803005E
:1013800000A91248FFF744FE1148FFF7DBFD4FF4B8
:10139000F060ADF8000000A90D48FFF739FE0D48D8
:1013A000FFF7D0FD0120ADF8000000A90948FFF7C4
:1013B0002FFE0948FFF7C6FD4FF48050ADF800003E
:1013C00000A90548FFF724FE01BD00BF001401403D
:1013D00000180140001C01400020014000B595B0FC
:1013E0000120009001200190142002900020039021
:1013F0000020049001200590002006900620079010
:10140000002008900020099000200A9000200B90F6
:1014100000200C9000200D9000200E904FF4805082
:101420000F9000201090002011900020129000A832
:10143000139000A8149007A800F02EFE01210620AA
:1014400000F098FE15B000BDF0B540F2FF7581EADE
:10145000030C0CF0004C15EA11541DBF15EA13578C
:10146000AC42AF42E5E0BC41C1F31301C3F3130347
:10147000801A994143F4801304D2641E400049410C
:1014800080185941C90241EA5051B1FBF3F603FB00
:101490001611A2FB0675D7EBC020A94102D2761E19
:1014A00080185941C90241EA5051B1FBF3FE03FBD8
:1014B0001E11A2FB0E75D7EBC020A94103D2AEF1DD
:1014C000010E80185941890241EA9051760546EA99
:1014D0008E2EB1FBF3F603FB1611A2FB0675D7EBBC
:1014E0008020A94102D2761E80185941C90241EAE2
:1014F00050514EEA060EB1FBF3F603FB1611A2FBA8
:101500000675D7EBC020A94102D2761E801859413A
:10151000C90241EA5051B1FBF3F703FB1711A2FBDB
:101520000735D3EBC020A94167F100070CBF00428B
:1015300047F0010766F3D5274FEA1E31B80814F5C6
:10154000806412DDBD0775F1004250EB0E5051EB87
:10155000045111F5801F5CBF41EA0C01F0BD4CF055
:101560007F6141F0E0410020F0BDBD076D0840EA19
:101570000E5041F48011D4F10104B4F120060ADACE
:10158000C4F120060200E04001FA06F3E1401843EE
:10159000B24015430EE0342C13DCC6F1200445EABA
:1015A00040056D0820FA06F2154321FA06F0A14025
:1015B0000D43002175F1004250F1000051EB0C0188
:1015C000F0BD00205FEA0C01F0BDCFB992185B417D
:1015D000B3FA83F704BFB2FA82F6BF190B3FB7F133
:1015E00020062FBF02FA06F3BB40C7F1200622FAFD
:1015F00006F638BF3343BA401CB1E419641E33E722
:101600007F4231F00041B1FA81F404BFB0FA80F6B4
:10161000A4190B3CB4F120062FBF00FA06F1A1403B
:10162000C4F1200620FA06F638BF3143A0403C1B27
:101630001AE7AC421ABF05EA1357AF4212E050EA6C
:1016400041061CBF52EA4306BFE750EA4107304655
:1016500061461CBF41EA0551F0BD52EA430C08BF88
:10166000C143F0BD00204FF4001616EB410F98BFA8
:1016700016EB430F08BF16EB410F24BFC14305E033
:1016800016EB430F0CBF61464CEA0551F0BD00005C
:101690002DE9F04385B005000C0000200600002075
:1016A00007000420804635488146A88806004FF68A
:1016B000C070064000A800F0C3FA02988146304886
:1016C000B9FBF0F007003E43AE8028884FF6FE716C
:1016D000084028800020060020682A49884210D24D
:1016E00020684000B9FBF0F080461FFA88F8B8F196
:1016F000040F01D20420804658EA0606781C28848C
:1017000026E0E0884BF6FF71884206D1206803216D
:101710004843B9FBF0F0804607E0206819214843B0
:10172000B9FBF0F0804658F480485FEA085001D1D8
:1017300058F0010858F400400643BFB24FF49670C9
:1017400000FB07F04FF47A7190FBF1F0401C288405
:10175000AE83288850F001002880288806004FF6C4
:10176000F5300640A0886189084306432E80A08991
:1017700021890843288105B0BDE8F08300127A0072
:1017800040420F00A1860100C9B2002904D002889E
:1017900052F00102028004E002884FF6FE731A4004
:1017A00002807047C9B2002905D002884FF48073C7
:1017B0001A43028004E002884FF6FF631A40028059
:1017C0007047C9B2002905D002884FF400731A434C
:1017D000028004E002884FF6FF531A4002807047EF
:1017E000C9B2002904D0028852F48062028004E069
:1017F00002884FF6FF331A4002807047C9B2018257
:101800007047008AC0B27047D2B2002A02D051F0AD
:10181000010101E011F0FE01C9B20182704770B40C
:101820000200002633000026340000263500002682
:101830003000968A3400168B35002D0455EA0406D4
:101840003602360A33008B4202D10126300001E015
:1018500000263000C0B270BC704782B00200002386
:101860001800002301930023009300920B0F0193B3
:101870000902090A019B002B03D0009B143300933B
:1018800003E0090C009B18330093009B1B680B427C
:1018900002D00123180001E000231800C0B202B0FA
:1018A0007047000080B50121012000F057FA0121A6
:1018B000012000F053FA4FF44060ADF8000003201F
:1018C0008DF802001C208DF8030000A90148FFF7E5
:1018D0009FFB01BD000C014000B585B001216B48A4
:1018E000FFF752FF0020ADF804004BF6FF70ADF893
:1018F0000600D220ADF808004FF48060ADF80A0071
:101900004FF48040ADF80C000348009000A95F48F8
:10191000FFF7BEFE05B000BD400D030080B50121FC
:101920005FF4800000F02CFA0121082000F016FA84
:10193000FFF7B8FFFFF7D0FF01BD70B504000D0041
:10194000160001215148FFF72DFF4F494F48FFF77F
:1019500066FF0028F9D000222100C9B24B48FFF7EA
:1019600053FF47494948FFF75AFF0028F9D029009B
:10197000C9B24648FFF742FF42494448FFF74FFFCC
:101980000028F9D03100C9B24048FFF737FF3D4980
:101990003E48FFF744FF0028F9D001213B48FFF7FC
:1019A00010FF502000F074F870BD0000F8B504007E
:1019B0000D00012006005FF400313448FFF74DFFB1
:1019C0000028F8D101213148FFF7ECFE2E492F48BD
:1019D000FFF725FF0028F9D000222100C9B22B48CB
:1019E000FFF712FF26492948FFF719FF0028F9D011
:1019F0002900C9B22548FFF701FF22492348FFF714
:101A00000EFF0028F9D001212048FFF7CBFE1E4928
:101A10001E48FFF704FF0028F9D001222100C9B2B7
:101A20001A48FFF7F1FE14491848FFF7F8FE00289E
:101A3000F9D0F6B2002E14D000211448FFF7D0FEE2
:101A400001211248FFF7BDFE0C491048FFF7E7FEE1
:101A50000028EED00D48FFF7D4FE07000020060056
:101A6000E7E701210948FFF7BBFE4FF4804000F093
:101A70000FF83800C0B2F2BD0200030040000300BE
:101A800082000700840007000100030000580040A6
:101A9000002801D0401EFBE770470000B0B581EA86
:101AA000030C0CF0004C40F2FF7515EA11541DBFF9
:101AB00015EA1357AC42AF423AE0E41923EA455322
:101AC00043F48013C90241F0004141EA50574FEA04
:101AD000C02E1100AEFB020200284FF00000E7FB11
:101AE00001204FF00001E3FB0E2118BF42F001027C
:101AF000401800214941E3FB0701A4F580640F036E
:101B000002D252004041494154F101046BDD4708C3
:101B100072F1004250F1000051EB0451A1F5801127
:101B20005CBF41EA0C01B0BD4CEA05510020B0BDDC
:101B300005EA1357AC4214BFAF4240E050EA410EF1
:101B40001CBF52EA430E02E061460020B0BD2442B1
:101B50003C441AD13F42F7D0090302BF014600209E
:101B6000143FB1FA81FEA7EB0E0401FA0EF70EF155
:101B70000C0ECEF1200100FA0EFEC84047EA000725
:101B800023EA455343F48013A3E733F00043B3FA49
:101B900083F704BFB2FA82FE77440B3FE41BB7F130
:101BA000200E2FBF02FA0EF3BB40C7F1200E22FA1F
:101BB0000EFE38BF43EA0E03BA40641C82E750EAC7
:101BC000410E14BF52EA430E6FF000014FF40017AC
:101BD00017EB430F8ABF194617EB410FB6E74CEAE4
:101BE00005510020B0BDD4F10104B4F120070FDA93
:101BF000C4F12007520828BF42F0010210FA07F58D
:101C000001FA07F7E1BF2A43E0403843E1400FE023
:101C1000352C99DCC7F1200452EA400220FA07F281
:101C200018BF42F0010231FA07F0A1400A43002137
:101C300072F1004250F1000051EB0C01B0BD000008
:101C400030B40025290000252A0000252B0000259E
:101C50002C00384D2D6815F00C0529000D00002DC5
:101C600004D0042D05D0082D06D026E02D4D0560AA
:101C700025E02C4D056022E02E4D2D6815F47015E1
:101C80002A002C4D2D6815F480352B00920C921CE7
:101C9000002B04D1244D05FB02F505600FE0254D16
:101CA0002D68AD0304D5204D05FB02F5056006E067
:101CB0001C4D05FB02F5056001E01A4D05601D4D48
:101CC0002D6815F0F00529000909184D4D5D2C000F
:101CD0000568E5404560174D2D6815F4E06529005D
:101CE000090A124D4D5D2C004568E5408560114D97
:101CF0002D6815F460552900C90A0C4D4D5D2C0066
:101D00004568E540C5600B4D2D6815F44045290038
:101D1000890B074D4D5D2C00C568B5FBF4F50561D9
:101D200030BC704700127A0000093D00000400201A
:101D30002404002004100240C9B2002905D0064A3C
:101D400012680243044B1A6004E0034A126882439B
:101D5000014B1A60704700BF14100240C9B200293D
:101D600005D0064A12680243044B1A6004E0034A95
:101D700012688243014B1A60704700BF181002407E
:101D8000C9B2002905D0064A12680243044B1A6002
:101D900004E0034A12688243014B1A60704700BF97
:101DA0001C100240C9B2002905D0064A126802433D
:101DB000044B1A6004E0034A12688243014B1A6024
:101DC000704700BF0C10024070B44FF0004591EA1C
:101DD000030F44BF6B4000F0F2B9841A71EB0306A5
:101DE00004D26E40001BB141121973414FF4001C24
:101DF0001CEB410F34BF7CEB430684E00C0DA4EBDD
:101E00001356362E7DDC012E43DC45EAC32343EA1C
:101E1000525312BFD20292025B08240545EAC12147
:101E200041EA5051D2EBC020994125D407D1B0FAF4
:101E300080F610FA06F164D00020203608E0B1FAEE
:101E400081F6B140C6F1200220FA02F21143B040FF
:101E50004FEAF474B4EB465434F001064FEA7404CC
:101E60000AD8D6F50016760D04F00044F04061FA69
:101E700006F25040F1404840C00A40EA415021F08B
:101E8000004128BF5FEA500550F1000044EBD1212A
:101E900037E045EAC323DB0A45EAC121C90AB6F1A6
:101EA00020050EDD42EA0242120CC5F1200603FABB
:101EB00006F6EB4042EA06056D42984161F10001E9
:101EC0000DE062FA06F5F240554063FA06FC82EA3C
:101ED0000C02F3405A406D42904161EB030111F452
:101EE000801F05D1641E620502D06D00404149414A
:101EF00021F48011430875F1004350F1000041EBDB
:101F0000045170BC70471CEB410F15D223F0004305
:101F100052EA43060BD04FEA4C0CBCEB410F04D8FD
:101F20000C0D661E342EB7DDEBE7801A994150EA9E
:101F3000410608BF0021E4E708BF1CEB430F28BFA0
:101F40006FF00001DDE7000080B55148006850F0F7
:101F500001004F4908604F4800680E4908404D494C
:101F600008604B4800680C490840494908604848E7
:101F7000006830F48020464908604648006830F424
:101F8000FE004449086005485FF41F01016000F04D
:101F900007F801BD0000FFF8FFFFF6FE0810024041
:101FA00080B500F001F801BD82B000200190002052
:101FB00000903748006850F4803035490860344854
:101FC000006810F4003000900198401C01900098C7
:101FD000002803D10198B0F5A06FF0D12C4800681B
:101FE000800302D50120009001E0002000900098BD
:101FF000012848D12548006850F0100023490860A6
:102000002248006880088000204908601F48006856
:1020100050F002001D4908601E481E490968016011
:102020001C481C49096801601A48006850F4806027
:10203000184908601748006830F47C10154908609A
:102040001448006850F4E81012490860104800680D
:1020500050F080700E4908600D4800688001FBD583
:102060000C480068800880000A4908600948006838
:1020700050F00200074908600648006810F00C00A4
:102080000828F9D100E0FEE702B0704700200240C6
:102090000010024004100240416882681143C26887
:1020A0001143026911434269114382691143C269B4
:1020B0001143026A1143426A1143826A1143C26AA0
:1020C000114302685FF0204343F822108168082919
:1020D0000BD101685FF0204252F8211051F040010D
:1020E00002685FF0204343F82210016B0968026B1D
:1020F000526851EA0211026B926851EA0221026BA6
:10210000D26851EA0241026B126951EA0251026B34
:10211000526951EA0261026B9269114302689200AE
:10212000B2F1C0425160816AB1F5804F19D1416B63
:102130000968426B526851EA0211426B926851EA97
:102140000221426B126951EA0251426B526951EA13
:102150000261426B926911430268054B43F82210F9
:1021600005E00168024A7FF0704342F82130704771
:10217000040100A0C9B200290AD05FF0204252F841
:10218000202052F001025FF0204343F8202009E0B4
:102190005FF0204252F82020034B1A405FF02043AA
:1021A00043F82020704700BFFEFF0F0070B44FF0CF
:1021B000004591EA030C44BF6B40FFF70EBE841A42
:1021C00071EB030603D2001BB141121973414FF4A6
:1021D000001C1CEB410F34BF7CEB430443E00C0DAF
:1021E000A4EB1356352E50DC45EAC323DB0A45EA3F
:1021F000C121C912B6F120050DDD63FA05F6EB40E9
:1022000086EA0305124218BF45F00105C01851F1D6
:1022100000010CD213E062FA06F5F2405540F3419A
:102220005A40B340F3405A408018594107D34908F7
:102230005FEA30005FEA350528BF45F0010501F58A
:102240008011420875F1004250F1000041EB045149
:1022500070BC4FF4001C1CEB410F38BF70470020CE
:10226000090D090570471CEB410F10D252EA4306D5
:102270000BD0BCEB410F05D80C0DAB43661E342EC2
:10228000B5DD02E0AB438018594170BC704770BCAB
:10229000704700007047FEE7FEE7FEE7FEE7704785
:1022A000704770477047704780B501213148FEF78D
:1022B00028FE002813D04FF400710948FEF750FFA4
:1022C000002804D107484FF40071016003E006487C
:1022D0004FF40071016001212648FEF72EFE01BD7A
:1022E000001C0140101C0140141C014080B501215C
:1022F0000648FEF706FE002806D0054801210170B9
:1023000001210248FEF719FE01BD00BF0004004094
:102310001B05002080B502211548FEF721FF01BDF5
:1023200000B583B0022000F073F800281AD0022113
:102330000F48FEF715FF00280CD12020019008203F
:1023400000904FF4FA7340F2E73207490948FDF76D
:1023500077FF04E00448FEF7D2FD0449086002203C
:1023600000F070F807BD00BF000C0040180400200A
:10237000000801400008004000221100304A11000E
:102380008279002A36D02E4A126803689A432C4B71
:102390001A601C4A126803689A431A4B1A60027941
:1023A00051180A6803681A430A60174A12680368DA
:1023B0009A43154B1A60154A126803689A43134BE7
:1023C0001A604279102A0CD10F4A126803681A4326
:1023D0000D4B1A600D4A126803681A430B4B1A60C2
:1023E0000EE0174A1100427951180A6803681A432F
:1023F0000A6005E0027951180A6803689A430A6086
:102400007047000004040140080401400C0401402E
:1024100001000023180000231A00094B1B680B4021
:102420001A000A4B1B680B4204D0002A02D0012379
:10243000180001E000231800C0B27047000000003F
:102440000004014001490860704700001404014085
:10245000F0B400242100002422000F242300C478BB
:10246000002C20D0194C246814F4E064D4F5E06406
:10247000240A2100D1F104042200CB404478944086
:10248000210084781C402143090104780C4D6155DA
:10249000047864110B4D0126077817F01F07BE4022
:1024A00045F8246009E004786411074D0126077897
:1024B00017F01F07BE4045F82460F0BC704700BF0E
:1024C00000E400E000E100E080E100E00CED00E06D
:1024D0004AB38B0707D011F8013B00F8013B521EAD
:1024E00021D08B07F7D183071ED1103A07D330B420
:1024F000B1E83810103AA0E83810F9D230BC5307D0
:1025000024BFB1E80810A0E8081044BF51F8043B0C
:1025100040F8043BD20724BF31F8022B20F8022BED
:1025200044BF0B7803707047083A07D3B1E808102E
:10253000083A40F8043B40F804CBF7D25307E4E7ED
:10254000F446400D40EAC120490006D200F013F8DD
:10255000004248BF6FF00040604700F00CF84FF0B9
:10256000004188428CBF084640426047400D40EA27
:10257000C12049000CD240F00040490DA1F5806116
:10258000491C05D4D1F11F0154BFC840C017704782
:102590004FF00000704700004FF4001C1CEB410F8F
:1025A00094BF1CEB430F09E041EA030C50EA4C0CCA
:1025B00052EA0C0C03D2994208BF9042704714BFF4
:1025C0008B42824270470000010040F10880F446CF
:1025D000404200F004F851F000416047010009D08A
:1025E000B0FA80F18840C91CC1F58461090501EB8E
:1025F000D0214005704710B409E050F8041B50F892
:10260000042B51F8044B42F8044B1B1FF9D150F82E
:10261000043B002BF1D110BC704700009926000844
:10262000F40000002804002000000000F725000846
:10263000280000000428000800040020000000001A
:1026400010B50548054CA04204D050F8041B88473B
:10265000A042FAD110BD00BF1C2600084026000889
:1026600070470448F3468047034981F308884FF0D8
:1026700001005847612600080004002000B5054A03
:102680001068002804D011000220ABBE00201060AA
:1026900000BD000010050020002305E050F8041BD9
:1026A00041F8043B121FFBD150F8042B002AF5D14E
:1026B00070470000FFF7D5FF002801D0FFF7C0FFEB
:1026C0000020FEF7A3F900F010F8000080B5FFF736
:1026D000D5FF024A11001820ABBEFBE7260002001E
:1026E00007463846FFF7F2FFFBE780B5FFF7F8BF74
:1026F000FFF7D0BDFFF7CFBDFFF7CEBDFFF7CDBDD4
:10270000FFF7CCBDFFF7CBBDFFF7CABDFFF7C9BDD3
:10271000FFF7C8BDFFF7FEBFFFF7FEBFFFF7FEBF25
:10272000FFF7FEBFFFF7FEBFFFF7FEBFFFF7F2BDEB
:10273000FFF7F6BDFFF7FEBFFFF7FEBFFFF7FEBFD7
:10274000FFF7FEBFFFF7FEBFFFF7FEBFFFF7FEBFBD
:10275000FFF7FEBFFFF7FEBFFFF7FEBFFFF7FEBFAD
:10276000FFF7FEBFFFF7FEBFFFF7FEBFFFF7FEBF9D
:10277000FFF7FEBFFFF7FEBFFFF7FEBFFFF7FEBF8D
:10278000FFF7FEBFFFF78FBDFFF7B0BDFFF78CBDB2
:10279000FFF7FEBFFFF7FEBFFFF7FEBFFFF7FEBF6D
:1027A000FFF7FEBFFFF7FEBFFFF7FEBFFFF7FEBF5D
:1027B000FFF7FEBFFFF7FEBFFFF7FEBFFFF7FEBF4D
:1027C000FFF7FEBFFFF7FEBFFFF7FEBFFFF7FEBF3D
:1027D000FFF7FEBFFFF7FEBFFFF7FEBFFFF7FEBF2D
:1027E000FFF7FEBFFFF7FEBFFFF7FEBFFFF7FEBF1D
:1027F000FFF7FEBFFFF7FEBFFFF7FEBFFFF7FEBF0D
:10280000FFF7FEBF00000000010203040102030401
:102810000607080900000000000069401B000000D6
:10282000FEFFFFFFE80300000204060800000000AE
:04000005080026B514
:00000001FF
